S01200004C43445F6B65797061642E7372656362
S113000012C019C018C017C016C015C014C013C040
S113001012C011C010C00FC00EC00DC00CC00BC068
S11300200AC009C008C011241FBECFE5D4E0DEBF5A
S1130030CDBF1CD044C1E4CF15BA82BB84E085BBDC
S113004087E893E10197F1F700C0000015BA08951D
S113005091E095BB82BB85E085BB87E893E101977E
S1130060F1F700C0000081E085BB08958FEF84BBE9
S113007081BB8FE087BB80EF88BB88E390E0DCDF47
S113008087E893E10197F1F700C0000081E090E078
S1130090D3DF87E893E10197F1F700C0000080E81F
S11300A090E0CADF87E893E10197F1F700C0000010
S11300B08EE090E0C1DF87E893E10197F1F700C09B
S11300C00000C0E0D0E00F2EFEEFEF2EF02D0F2E3B
S11300D0FDEFFF2EF02D0BEF17EFE8BAB4990CC02B
S11300E087E3B6DF9FE926E881E091502040804015
S11300F0E1F700C000002196B5990CC088E3A8DFA1
S11301009FE926E881E0915020408040E1F700C05B
S113011000002196B6990CC089E39ADF9FE926E88E
S113012081E0915020408040E1F700C0000021961A
S1130130B7990CC08FE28CDF9FE926E881E09150EB
S113014020408040E1F700C000002196F8BAB4993D
S11301500CC084E37DDF9FE926E881E091502040D4
S11301608040E1F700C000002196B5990CC085E3FA
S11301706FDF9FE926E881E0915020408040E1F75D
S113018000C000002196B6990CC086E361DF9FE9A8
S113019026E881E0915020408040E1F700C0000053
S11301A02196B7990CC08AE253DF9FE926E881E0E3
S11301B0915020408040E1F700C00000219608BB28
S11301C0B4990CC081E344DF9FE926E881E09150B3
S11301D020408040E1F700C000002196B5990CC092
S11301E082E336DF9FE926E881E091502040804099
S11301F0E1F700C000002196B6990CC083E328DF24
S11302009FE926E881E0915020408040E1F700C05A
S113021000002196B7990CC08DE21ADF9FE926E809
S113022081E0915020408040E1F700C00000219619
S113023018BBB4990CC083E40BDF9FE926E881E086
S1130240915020408040E1F700C000002196B5990C
S11302500CC080E3FDDE9FE926E881E09150204058
S11302608040E1F700C000002196B6990CC08DE3F0
S1130270EFDE9FE926E881E0915020408040E1F7DD
S113028000C000002196B7990CC08BE2E1DE9FE923
S113029026E881E0915020408040E1F700C0000052
S11302A02196C031D10509F018CF80EC90E0C4DE6E
S11302B087E893E10197F1F700C000000ECFF894AE
S10502C0FFCF6A
S9030000FC
